:020000040800F2
:10000000005000204D070008E1050008E705000842
:10001000ED050008F3050008F905000800000000E0
:10002000000000000000000000000000FF050008C4
:100030000B06000800000000170600082306000851
:100040009507000895070008950700089507000820
:100050009507000895070008950700089507000810
:100060009507000895070008950700089507000800
:1000700095070008950700089507000895070008F0
:1000800095070008950700089507000895070008E0
:100090003106000895070008950700089507000835
:1000A00095070008950700089507000895070008C0
:1000B0004506000895070008950700089507000801
:1000C00095070008950700089507000895070008A0
:1000D0009507000895070008950700089507000890
:1000E0009507000895070008950700080000000024
:1000F0000000000000000000000000000000000000
:0C01000000000000000000005FF808F1A3
:10010C0010B5054C237833B9044B13B10448AFF345
:10011C0000800123237010BD10000020000000009F
:10012C00742A000808B5034B1BB103490348AFF30D
:10013C00008008BD0000000014000020742A000894
:10014C0080B500AF174B184A1A60164B10225A6034
:10015C00144B00229A60134B0022DA60114B4FF4BF
:10016C0040321A610F4B4FF440125A610D4B002272
:10017C001A760C4B00225A760A4B00229A76094BBF
:10018C000022DA76074B00221A77064B00225A77A8
:10019C00044800F05DFB0346002B01D000F0F2F99F
:1001AC0000BF80BD2C0000200064004080B588B0EA
:1001BC0000AF786007F1100300221A605A609A6051
:1001CC00DA607B681B68204A934239D11F4BDB698C
:1001DC001E4A43F00073D3611C4BDB6903F00073C0
:1001EC00FB60FB68194B9B69184A43F0040393614D
:1001FC00164B9B6903F00403BB60BB684FF40063B0
:10020C003B6100237B610023BB6107F1100319469E
:10021C000F4801F06BFA4FF480533B6102237B6172
:10022C000323FB6107F110031946094801F05EFA3C
:10023C0000220021142001F022FA142001F03BFAD4
:10024C0000BF2037BD4680BD006400400010024056
:10025C000008014080B588B000AF07F11003002200
:10026C001A605A609A60DA602E4B9B692D4A43F0F3
:10027C00100393612B4B9B6903F01003FB60FB682D
:10028C00284B9B69274A43F020039361254B9B69BC
:10029C0003F02003BB60BB68224B9B69214A43F0EF
:1002AC00080393611F4B9B6903F008037B607B6819
:1002BC001C4B9B691B4A43F004039361194B9B69CC
:1002CC0003F004033B603B6801224FF400511648D5
:1002DC0001F090FB00224FF44051144801F08AFBCE
:1002EC004FF400533B6101237B610023BB6102236C
:1002FC00FB6107F1100319460B4801F0F7F94FF4B5
:10030C0040533B6101237B610023BB610223FB61F2
:10031C0007F110031946054801F0E8F900BF203732
:10032C00BD4680BD0010024000100140000C014091
:10033C0080B584B000AF00F029FA00F08DF8FFF71B
:10034C0089FF00F089F9FFF7FBFE354801F0B2FF99
:10035C0000F0E2F8334800F03FFC0221314800F095
:10036C006FFE2F4801F0A6FF0023FB812E4A3B1D98
:10037C0092E8030083E803002C4B00221A602B4BFD
:10038C002B4A5A60294B0022DA60284B04229A60CF
:10039C00264B08221A61274B1B88002B12D1264BA7
:1003AC001B78002B0ED1234B4FF47A721A804FF42A
:1003BC000051224801F036FB3A1D214B1B491948CC
:1003CC0000F04EFC1F4B1B78002BE4D01E4B9B689F
:1003DC00042B20D11C4B5B681C4A93421BD11C4B39
:1003EC001B781B021AB2B7F90E3013431BB2FB81F8
:1003FC00174B5B789AB2FB891343FB81FB8940F264
:10040C001622934207D14FF48051124801F00AFB97
:10041C00094B01221A700B4B00221A70BBE700BF6C
:10042C00980000202C0000208C2A0008700000206E
:10043C00F4E5061800000020950000200010014093
:10044C00900000209400002054000020E550FF187C
:10045C0088000020000C014080B590B000AF07F17F
:10046C00180328220021184602F0D2FA3B1D002264
:10047C001A605A609A60DA601A610123BB614FF40A
:10048C008033FB6100233B620123BB6202237B634D
:10049C004FF48033BB634FF4E013FB6307F1180395
:1004AC00184601F0D9FA0346002B01D000F06AF887
:1004BC000F237B600223BB600023FB604FF480633F
:1004CC003B6100237B613B1D0221184601F046FD78
:1004DC000346002B01D000F055F800BF4037BD4655
:1004EC0080BD000080B582B000AF7860074B084A31
:1004FC000021786800F083FC0346002B02D1054BE9
:10050C0001221A7000BF0837BD4680BD880000204C
:10051C00540000209400002080B58AB000AF002366
:10052C003B6000237B600023BB600023FB60002347
:10053C003B6100237B610023BB610123FB61012331
:10054C003B623B461946034800F07DFA00BF283752
:10055C00BD4680BD2C00002080B483B000AF786015
:10056C00074B1B88002B05D0054B1B88013B9AB20F
:10057C00034B1A8000BF0C37BD4680BC704700BFD0
:10058C000000002080B400AF72B600BFFEE7000090
:10059C0080B483B000AF0E4B9B690D4A43F001034E
:1005AC0093610B4B9B6903F001037B607B68084BE9
:1005BC00DB69074A43F08053D361054BDB6903F0D9
:1005CC0080533B603B6800BF0C37BD4680BC704716
:1005DC000010024080B400AFFEE780B400AFFEE72D
:1005EC0080B400AFFEE780B400AFFEE780B400AF8C
:1005FC00FEE780B400AF00BFBD4680BC704780B43E
:10060C0000AF00BFBD4680BC704780B400AF00BFD8
:10061C00BD4680BC704780B500AF00F0FDF800BF50
:10062C0080BD000080B500AF024800F02EFD00BF79
:10063C0080BD00BF2C00002080B500AF024801F047
:10064C008BFE00BF80BD00BF9800002080B400AFBF
:10065C0000BFBD4680BC704780B586B000AF07F1C7
:10066C00080300221A605A609A60DA603B46002246
:10067C001A605A601F4B4FF080421A601D4B41F6B6
:10068C001F425A601B4B00229A601A4B0922DA60F7
:10069C00184B00221A61174B00229A61154801F081
:1006AC00B9FD0346002B01D0FFF76CFF4FF48053CC
:1006BC00BB6007F1080319460E4801F055FF0346CD
:1006CC00002B01D0FFF75EFF00233B6000237B6013
:1006DC003B461946074802F02BF90346002B01D084
:1006EC00FFF750FF1C2000F0E6FF00BF1837BD4697
:1006FC0080BD00BF9800002080B584B000AF78604A
:10070C007B681B68B3F1804F13D10C4BDB690B4A30
:10071C0043F00103D361094BDB6903F00103FB6078
:10072C00FB68002200211C2000F0A9FF1C2000F017
:10073C00C2FF00BF1037BD4680BD00BF0010024095
:10074C00FFF784FF0B480C490C4A002302E0D458F5
:10075C00C4500433C4188C42F9D3094A094C002301
:10076C0001E013600432A242FBD302F059F9FFF707
:10077C00DFFD70470000002010000020C02A000898
:10078C0010000020E4000020FEE7000080B500AF60
:10079C00084B1B68074A43F010031360032000F05A
:1007AC0063FF0F2000F008F8FFF7F2FE0023184655
:1007BC0080BD00BF0020024080B582B000AF7860E1
:1007CC00124B1A68124B1B7819464FF47A73B3FB11
:1007DC00F1F3B2FBF3F3184600F07BFF0346002B5A
:1007EC0001D001230EE07B680F2B0AD80022796818
:1007FC004FF0FF3000F043FF064A7B681360002384
:10080C0000E0012318460837BD4680BD04000020D7
:10081C000C0000200800002080B400AF054B1B78B2
:10082C001A46054B1B681344034A136000BFBD46B0
:10083C0080BC70470C000020E000002080B400AFAA
:10084C00024B1B681846BD4680BC7047E000002078
:10085C0080B584B000AF78607B68002B01D1012398
:10086C00EDE07B6893F82030DBB2002B02D1786886
:10087C00FFF79CFC7B681B681A687B681B6842F05E
:10088C0001021A60FFF7DAFFF86012E0FFF7D6FFFB
:10089C000246FB68D31A0A2B0BD97B685B6A43F4BC
:1008AC0000327B685A627B68052283F82020012382
:1008BC00C5E07B681B685B6803F00103002BE5D087
:1008CC007B681B681A687B681B6822F002021A603E
:1008DC00FFF7B4FFF86012E0FFF7B0FF0246FB68C9
:1008EC00D31A0A2B0BD97B685B6A43F400327B6802
:1008FC005A627B68052283F8202001239FE07B68E5
:10090C001B685B6803F00203002BE5D17B681B7E40
:10091C00012B08D17B681B681A687B681B6842F046
:10092C0080021A6007E07B681B681A687B681B688A
:10093C0022F080021A607B685B7E012B08D17B68F9
:10094C001B681A687B681B6842F040021A6007E05B
:10095C007B681B681A687B681B6822F040021A606F
:10096C007B689B7E012B08D17B681B681A687B68AF
:10097C001B6842F020021A6007E07B681B681A684B
:10098C007B681B6822F020021A607B68DB7E012BDF
:10099C0008D17B681B681A687B681B6822F0100200
:1009AC001A6007E07B681B681A687B681B6842F05A
:1009BC0010021A607B681B7F012B08D17B681B68B7
:1009CC001A687B681B6842F008021A6007E07B68B3
:1009DC001B681A687B681B6822F008021A607B6827
:1009EC005B7F012B08D17B681B681A687B681B68CE
:1009FC0042F004021A6007E07B681B681A687B6887
:100A0C001B6822F004021A607B689A687B68DB68BA
:100A1C001A437B681B691A437B685B6942EA0301D2
:100A2C007B685B685A1E7B681B680A43DA617B68CB
:100A3C0000225A627B68012283F82020002318468A
:100A4C001037BD4680BD80B487B000AF7860396088
:100A5C007B681B687B617B6893F82030FB74FB7CA4
:100A6C00012B03D0FB7C022B40F0AA807B69D3F8CE
:100A7C00003243F001027B69C3F800223B685B69DA
:100A8C0003F01F03012202FA03F3FB607B69D3F826
:100A9C001C22FB68DB431A407B69C3F81C223B68B1
:100AAC00DB69002B23D17B69D3F80C22FB68DB4379
:100ABC001A407B69C3F80C223B68DB6819043B685D
:100ACC005B689BB23A68526919437B69483243F8B8
:100ADC0032103B689B6819043B681B689AB23B68F0
:100AEC005B690A4379694833DB000B445A603B6805
:100AFC00DB69012B22D17B69D3F80C22FB681A43EA
:100B0C007B69C3F80C223B681B6819043B685B6863
:100B1C009BB23A68526919437B69483243F83210E8
:100B2C003B689B6819043B68DB689AB23B685B695D
:100B3C000A4379694833DB000B445A603B689B6974
:100B4C00002B09D17B69D3F80422FB68DB431A40E4
:100B5C007B69C3F8042207E07B69D3F80422FB68A5
:100B6C001A437B69C3F804223B681B69002B09D12B
:100B7C007B69D3F81422FB68DB431A407B69C3F80A
:100B8C00142207E07B69D3F81422FB681A437B69B3
:100B9C00C3F814223B681B6A012B07D17B69D3F87D
:100BAC001C22FB681A437B69C3F81C227B69D3F8AF
:100BBC00003223F001027B69C3F80022002306E017
:100BCC007B685B6A43F480227B685A620123184677
:100BDC001C37BD4680BC704780B584B000AF7860D0
:100BEC007B6893F82030DBB2012B2ED17B6802227C
:100BFC0083F820207B681B681A687B681B6822F0CE
:100C0C0001021A60FFF71AFEF86012E0FFF716FEF9
:100C1C000246FB68D31A0A2B0BD97B685B6A43F438
:100C2C0000327B685A627B68052283F820200123FE
:100C3C0012E07B681B685B6803F00103002BE5D1B5
:100C4C007B6800225A62002306E07B685B6A43F4EF
:100C5C0000227B685A62012318461037BD4680BDBE
:100C6C0080B489B000AFF860B9607A603B60FB6813
:100C7C0093F82030FB77FB681B689B68BB61FB7F9C
:100C8C00012B03D0FB7F022B40F0AD80BB6903F03E
:100C9C008063002B0AD1BB6903F00063002B05D1E4
:100CAC00BB6903F08053002B00F09580BB691B0ED1
:100CBC0003F003037B6101227B699A403B681A6055
:100CCC00BB689B68002B0DD1BB681B685A05BB68C1
:100CDC00DB68F96809681A437B6918331B010B44FC
:100CEC001A600FE0BB685B68DA00BB689B681A434C
:100CFC00BB68DB68F96809681A437B6918331B0108
:100D0C000B441A60FB681968BB681A697B69183355
:100D1C001B010B4404331A60BB681B7D012B11D1E2
:100D2C00FB681A687B6918331B01134404331B6876
:100D3C00FA68116843F480727B6918331B010B4409
:100D4C0004331A607B6807331B781A067B680633FA
:100D5C001B781B041A437B6805331B781B02134357
:100D6C007A68043212781046FA68116843EA000275
:100D7C007B691B010B4403F5C6731A607B68033354
:100D8C001B781A067B6802331B781B041A437B689A
:100D9C0001331B781B0213437A6812781046FA68E9
:100DAC00116843EA00027B691B010B4403F5C47311
:100DBC001A60FB681A687B6918331B0113441B68A3
:100DCC00FA68116843F001027B6918331B010B446C
:100DDC001A6000230EE0FB685B6A43F40012FB68A8
:100DEC005A62012306E0FB685B6A43F48022FB68CD
:100DFC005A62012318462437BD4680BC704780B424
:100E0C0087B000AFF860B9607A603B60FB6893F81C
:100E1C002030FB75FB7D012B03D0FB7D022B40F0BA
:100E2C000381BB68002B0ED1FB681B68DB6803F0E9
:100E3C000303002B16D1FB685B6A43F40012FB68BA
:100E4C005A620123F7E0FB681B681B6903F003037C
:100E5C00002B07D1FB685B6A43F40012FB685A62F3
:100E6C000123E8E0FB681A68BB681B331B011344C1
:100E7C001B6803F004027B689A607B689B68002BFC
:100E8C000CD1FB681A68BB681B331B0113441B682D
:100E9C005B0DC3F30A027B681A600BE0FB681A68EF
:100EAC00BB681B331B0113441B68DB0823F0604237
:100EBC007B685A60FB681A68BB681B331B011344C0
:100ECC001B6803F002027B68DA60FB681A68BB6877
:100EDC001B331B01134404331B6803F00803002B62
:100EEC0003D07B6808221A610BE0FB681A68BB68A8
:100EFC001B331B01134404331B6803F00F027B6884
:100F0C001A61FB681A68BB681B331B01134404335A
:100F1C001B681B0ADAB27B689A61FB681A68BB68AB
:100F2C001B331B01134404331B681B0C9AB27B68E4
:100F3C005A61FB681A68BB681B01134403F5DC7328
:100F4C001B68DAB23B681A70FB681A68BB681B0135
:100F5C00134403F5DC731B681A0A3B680133D2B2E5
:100F6C001A70FB681A68BB681B01134403F5DC7329
:100F7C001B681A0C3B680233D2B21A70FB681A68F1
:100F8C00BB681B01134403F5DC731B681A0E3B682A
:100F9C000333D2B21A70FB681A68BB681B01134486
:100FAC0003F5DE731A683B680433D2B21A70FB681F
:100FBC001A68BB681B01134403F5DE731B681A0A1D
:100FCC003B680533D2B21A70FB681A68BB681B0108
:100FDC00134403F5DE731B681A0C3B680633D2B25C
:100FEC001A70FB681A68BB681B01134403F5DE73A7
:100FFC001B681A0E3B680733D2B21A70BB68002B01
:10100C0008D1FB681B68DA68FB681B6842F0200299
:10101C00DA6007E0FB681B681A69FB681B6842F022
:10102C0020021A61002306E0FB685B6A43F480220D
:10103C00FB685A62012318461C37BD4680BC7047BA
:10104C0080B485B000AF786039607B6893F820304D
:10105C00FB73FB7B012B02D0FB7B022B09D17B6842
:10106C001B6859697B681B683A680A435A610023FC
:10107C0006E07B685B6A43F480227B685A6201233A
:10108C0018461437BD4680BC704780B58AB000AF97
:10109C00786000237B627B681B685B693B627B68C2
:1010AC001B685B68FB617B681B689B68BB617B682A
:1010BC001B68DB687B617B681B681B693B617B6819
:1010CC001B689B69FB603B6A03F00103002B7CD01F
:1010DC00BB6903F00103002B23D07B681B68012242
:1010EC009A60BB6903F00203002B03D0786800F010
:1010FC0083F916E0BB6903F00403002B04D07B6A70
:10110C0043F400637B620CE0BB6903F00803002B23
:10111C0004D07B6A43F480537B6202E0786800F071
:10112C0086F9BB6903F48073002B24D07B681B68A1
:10113C004FF480729A60BB6903F40073002B03D0E8
:10114C00786800F062F916E0BB6903F48063002B49
:10115C0004D07B6A43F400537B620CE0BB6903F45C
:10116C000063002B04D07B6A43F480437B6202E073
:10117C00786800F065F9BB6903F48033002B24D048
:10118C007B681B684FF480329A60BB6903F40033B0
:10119C00002B03D0786800F041F916E0BB6903F42A
:1011AC008023002B04D07B6A43F400437B620CE069
:1011BC00BB6903F40023002B04D07B6A43F4803317
:1011CC007B6202E0786800F044F93B6A03F00803A4
:1011DC00002B0CD07B6903F01003002B07D07B6A2B
:1011EC0043F400737B627B681B681022DA603B6AF5
:1011FC0003F00403002B0BD07B6903F00803002BD6
:10120C0006D07B681B680822DA60786800F02AF93F
:10121C003B6A03F00203002B09D07B681B68DB6878
:10122C0003F00303002B02D07868FFF75BF93B6AED
:10123C0003F04003002B0CD03B6903F01003002B90
:10124C0007D07B6A43F480637B627B681B68102247
:10125C001A613B6A03F02003002B0BD03B6903F0AF
:10126C000803002B06D07B681B6808221A6178687B
:10127C0000F00AF93B6A03F01003002B09D07B68DD
:10128C001B681B6903F00303002B02D0786800F085
:10129C00F2F83B6A03F40033002B0BD0FB6903F02C
:1012AC001003002B06D07B681B6810225A607868EC
:1012BC0000F0F3F83B6A03F48033002B0BD0FB698E
:1012CC0003F00803002B06D07B681B6808225A60C9
:1012DC00786800F0EBF83B6A03F40043002B7BD0FA
:1012EC00FB6903F00403002B72D03B6A03F4807398
:1012FC00002B08D0FB6803F00103002B03D07B6AA2
:10130C0043F001037B623B6A03F40073002B08D0AB
:10131C00FB6803F00203002B03D07B6A43F002034B
:10132C007B623B6A03F48063002B08D0FB6803F0FC
:10133C000403002B03D07B6A43F004037B623B6AFB
:10134C0003F40063002B43D0FB6803F07003002B05
:10135C003ED0FB6803F07003602B2BD0602B2ED893
:10136C00502B22D0502B2AD8402B19D0402B26D8CA
:10137C00302B10D0302B22D8102B02D0202B05D0A4
:10138C001DE07B6A43F008037B6219E07B6A43F043
:10139C0010037B6214E07B6A43F020037B620FE056
:1013AC007B6A43F040037B620AE07B6A43F0800374
:1013BC007B6205E07B6A43F480737B6200E000BFD4
:1013CC007B681B689A697B681B6822F070029A61C3
:1013DC007B681B6804225A607B6A002B08D07B68F0
:1013EC005A6A7B6A1A437B685A62786800F067F81D
:1013FC0000BF2837BD4680BD80B483B000AF786095
:10140C0000BF0C37BD4680BC704780B483B000AFC2
:10141C00786000BF0C37BD4680BC704780B483B089
:10142C0000AF786000BF0C37BD4680BC704780B4FD
:10143C0083B000AF786000BF0C37BD4680BC7047EE
:10144C0080B483B000AF786000BF0C37BD4680BC61
:10145C00704780B483B000AF786000BF0C37BD46D6
:10146C0080BC704780B483B000AF786000BF0C378D
:10147C00BD4680BC704780B483B000AF786000BFBD
:10148C000C37BD4680BC704780B483B000AF786029
:10149C0000BF0C37BD4680BC704780B483B000AF32
:1014AC00786000BF0C37BD4680BC704780B483B0F9
:1014BC0000AF786000BF0C37BD4680BC704780B46D
:1014CC0083B000AF786000BF0C37BD4680BC70475E
:1014DC0080B485B000AF78607B6803F00703FB60D5
:1014EC000C4BDB68BB60BA684FF6FF031340BB6064
:1014FC00FB681A02BB68134343F0BF6343F4003329
:10150C00BB60044ABB68D36000BF1437BD4680BCC7
:10151C00704700BF00ED00E080B400AF044BDB6807
:10152C001B0A03F007031846BD4680BC704700BF7A
:10153C0000ED00E080B483B000AF0346FB7197F977
:10154C000730002B0BDBFB7903F01F02064997F9E0
:10155C0007305B09012000FA02F241F8232000BF9A
:10156C000C37BD4680BC704700E100E080B483B00E
:10157C0000AF03463960FB7197F90730002B0ADB8B
:10158C003B68DAB20C4997F907301201D2B20B441E
:10159C0083F800230AE03B68DAB20849FB7903F0D0
:1015AC000F03043B1201D2B20B441A7600BF0C3766
:1015BC00BD4680BC704700BF00E100E000ED00E0DC
:1015CC0080B489B000AFF860B9607A60FB6803F052
:1015DC000703FB61FB69C3F10703042B28BF04233A
:1015EC00BB61FB690433062B02D9FB69033B00E0AA
:1015FC0000237B614FF0FF32BB6902FA03F3DA433D
:10160C00BB681A407B699A404FF0FF317B6901FA45
:10161C0003F3D9437B680B40134318462437BD466C
:10162C0080BC704780B582B000AF78607B68013BAE
:10163C00B3F1807F01D301230FE00A4A7B68013BA1
:10164C0053600F214FF0FF30FFF790FF054B002246
:10165C009A60044B07221A60002318460837BD46CF
:10166C0080BD00BF10E000E080B582B000AF7860B4
:10167C007868FFF72DFF00BF0837BD4680BD80B5E9
:10168C0086B000AF0346B9607A60FB7300237B61C0
:10169C00FFF742FF78617A68B9687869FFF790FFC5
:1016AC00024697F90F3011461846FFF75FFF00BF4F
:1016BC001837BD4680BD80B582B000AF0346FB71C4
:1016CC0097F907301846FFF735FF00BF0837BD46BE
:1016DC0080BD80B582B000AF78607868FFF7A2FF5C
:1016EC00034618460837BD4680BD000080B48BB059
:1016FC0000AF7860396000237B6200233B6269E1B4
:10170C0001227B6A02FA03F3FB613B681B68FA69EE
:10171C001340BB61BA69FB699A4240F058813B683F
:10172C005B689A4A93425ED0984A934275D8984A1D
:10173C00934258D0964A93426FD8964A934252D0CD
:10174C00944A934269D8944A93424CD0924A934219
:10175C0063D8924A934246D0904A93425DD8122B5A
:10176C002AD8122B59D801A252F823F0F3170008EB
:10177C00CD170008DF1700082118000827180008EB
:10178C002718000827180008271800082718000831
:10179C002718000827180008271800082718000821
:1017AC002718000827180008271800082718000811
:1017BC00D5170008E9170008794A934213D02CE09A
:1017CC003B68DB683B6229E03B68DB6804333B62C7
:1017DC0024E03B68DB6808333B621FE03B68DB6856
:1017EC000C333B621AE03B689B68002B02D104234C
:1017FC003B6213E03B689B68012B05D108233B62DD
:10180C007B68FA691A6109E008233B627B68FA6914
:10181C005A6103E000233B6200E000BFBB69FF2B71
:10182C0001D87B6801E07B6804337B61BB69FF2BCB
:10183C0002D87B6A9B0002E07B6A083B9B003B6101
:10184C007B691A680F213B6901FA03F3DB431A40E9
:10185C00396A3B6901FA03F31A437B691A603B68E6
:10186C005B6803F08053002B00F0B1804D4B9B69FB
:10187C004C4A43F0010393614A4B9B6903F001030B
:10188C00BB60BB68484A7B6A9B08023352F8233022
:10189C00FB607B6A03F003039B000F2202FA03F345
:1018AC00DB43FA681340FB607B68404A934213D0D9
:1018BC007B683F4A93420DD07B683E4A934207D0E7
:1018CC007B683D4A934201D1032306E0042304E0E4
:1018DC00022302E0012300E000237A6A02F00302F3
:1018EC0092009340FA681343FB602F497B6A9B0874
:1018FC000233FA6841F823203B685B6803F48013D9
:10190C00002B06D02D4B9A682C49BB6913438B6076
:10191C0006E02A4B9A68BB69DB43284913408B606D
:10192C003B685B6803F40013002B06D0234BDA688A
:10193C002249BB691343CB6006E0204BDA68BB69D4
:10194C00DB431E491340CB603B685B6803F40033F8
:10195C00002B06D0194B5A681849BB6913434B60CE
:10196C0006E0164B5A68BB69DB43144913404B60C5
:10197C003B685B6803F48033002B21D00F4B1A6853
:10198C000E49BB6913430B6021E000BF000032100D
:10199C000000311000002210000021100000121075
:1019AC00000011100010024000000140000801402E
:1019BC00000C0140001001400014014000040140E3
:1019CC000B4B1A68BB69DB43094913400B607B6AFC
:1019DC0001337B623B681A687B6A22FA03F3002BA3
:1019EC007FF48EAE00BF00BF2C37BD4680BC704765
:1019FC000004014080B483B000AF78600B467B805C
:101A0C0013467B707B78002B03D07A887B681A6135
:101A1C0003E07B881A047B681A6100BF0C37BD4653
:101A2C0080BC704780B485B000AF78600B467B807B
:101A3C007B68DB68FB607A88FB6813401A04FB68E0
:101A4C00D9437B880B401A437B681A6100BF14375B
:101A5C00BD4680BC7047000080B586B000AF786092
:101A6C007B68002B01D1012372E27B681B6803F0B9
:101A7C000103002B00F08780924B5B6803F00C0392
:101A8C00042B0CD08F4B5B6803F00C03082B12D18A
:101A9C008C4B5B6803F48033B3F5803F0BD1894BDF
:101AAC001B6803F40033002B6CD07B685B68002B45
:101ABC0068D101234CE27B685B68B3F5803F06D1AB
:101ACC00804B1B687F4A43F4803313602EE07B68A5
:101ADC005B68002B0CD17B4B1B687A4A23F4803358
:101AEC001360784B1B68774A23F4802313601DE046
:101AFC007B685B68B3F5A02F0CD1724B1B68714AE5
:101B0C0043F4802313606F4B1B686E4A43F480339D
:101B1C0013600BE06B4B1B686A4A23F48033136031
:101B2C00684B1B68674A23F4802313607B685B68EF
:101B3C00002B13D0FEF782FE386108E0FEF77EFE24
:101B4C0002463B69D31A642B01D9032300E25D4B97
:101B5C001B6803F40033002BF0D014E0FEF76EFE8C
:101B6C00386108E0FEF76AFE02463B69D31A642B23
:101B7C0001D90323ECE1534B1B6803F40033002B16
:101B8C00F0D100E000BF7B681B6803F00203002B60
:101B9C0063D04C4B5B6803F00C03002B0BD0494B10
:101BAC005B6803F00C03082B1CD1464B5B6803F4F9
:101BBC008033002B16D1434B1B6803F00203002B20
:101BCC0005D07B681B69012B01D00123C0E13D4B83
:101BDC001B6823F0F8027B685B69DB00394913430F
:101BEC000B603AE07B681B69002B20D0364B01223E
:101BFC001A60FEF723FE386108E0FEF71FFE02466E
:101C0C003B69D31A022B01D90323A1E12D4B1B688D
:101C1C0003F00203002BF0D02A4B1B6823F0F802D0
:101C2C007B685B69DB00274913430B6015E0264B8F
:101C3C0000221A60FEF702FE386108E0FEF7FEFD96
:101C4C0002463B69D31A022B01D9032380E11D4BB9
:101C5C001B6803F00203002BF0D17B681B6803F0B8
:101C6C000803002B3AD07B689B69002B19D0174BCB
:101C7C0001221A60FEF7E2FD386108E0FEF7DEFD96
:101C8C0002463B69D31A022B01D9032360E10D4BA9
:101C9C005B6A03F00203002BF0D0012000F09CFAE9
:101CAC001CE00A4B00221A60FEF7C8FD38610FE0F9
:101CBC00FEF7C4FD02463B69D31A022B08D9032355
:101CCC0046E100BF00100240000042428004424244
:101CDC00924B5B6A03F00203002BE9D17B681B6813
:101CEC0003F00403002B00F0A6800023FB758B4B44
:101CFC00DB6903F08053002B0DD1884BDB69874ADD
:101D0C0043F08053D361854BDB6903F08053BB6098
:101D1C00BB680123FB75824B1B6803F48073002B9B
:101D2C0018D17F4B1B687E4A43F480731360FEF717
:101D3C0085FD386108E0FEF781FD02463B69D31A48
:101D4C00642B01D9032303E1754B1B6803F48073E7
:101D5C00002BF0D07B68DB68012B06D16F4B1B6A24
:101D6C006E4A43F0010313622DE07B68DB68002BA5
:101D7C000CD16A4B1B6A694A23F001031362674B4F
:101D8C001B6A664A23F0040313621CE07B68DB6861
:101D9C00052B0CD1614B1B6A604A43F004031362A0
:101DAC005E4B1B6A5D4A43F0010313620BE05B4B15
:101DBC001B6A5A4A23F001031362584B1B6A574A99
:101DCC0023F0040313627B68DB68002B15D0FEF74D
:101DDC0035FD38610AE0FEF731FD02463B69D31A46
:101DEC0041F28832934201D90323B1E04B4B1B6A79
:101DFC0003F00203002BEED014E0FEF71FFD386158
:101E0C000AE0FEF71BFD02463B69D31A41F2883209
:101E1C00934201D903239BE0404B1B6A03F002035E
:101E2C00002BEED1FB7D012B05D13C4BDB693B4AF2
:101E3C0023F08053D3617B68DB69002B00F0878033
:101E4C00364B5B6803F00C03082B61D07B68DB69B5
:101E5C00022B46D1334B00221A60FEF7EFFC38619F
:101E6C0008E0FEF7EBFC02463B69D31A022B01D9C2
:101E7C0003236DE0294B1B6803F00073002BF0D19A
:101E8C007B681B6AB3F5803F08D1244B5B6823F455
:101E9C0000327B689B68214913434B601F4B5B6886
:101EAC0023F474127B68196A7B685B6A0B431B49C9
:101EBC0013434B601B4B01221A60FEF7BFFC3861C9
:101ECC0008E0FEF7BBFC02463B69D31A022B01D992
:101EDC0003233DE0114B1B6803F00073002BF0D083
:101EEC0035E0104B00221A60FEF7A8FC386108E0C0
:101EFC00FEF7A4FC02463B69D31A022B01D903233B
:101F0C0026E0064B1B6803F00073002BF0D11EE09B
:101F1C007B68DB69012B07D1012319E0001002401B
:101F2C0000700040600042420B4B5B68FB60FB683A
:101F3C0003F480327B681B6A9A4206D1FB6803F477
:101F4C0070127B685B6A9A4201D0012300E0002387
:101F5C0018461837BD4680BD0010024080B584B0CD
:101F6C0000AF786039607B68002B01D10123D0E091
:101F7C006A4B1B6803F007033A689A4210D9674B07
:101F8C001B6823F0070265493B6813430B60634BE6
:101F9C001B6803F007033A689A4201D00123B8E0AA
:101FAC007B681B6803F00203002B20D07B681B6846
:101FBC0003F00403002B05D0594B5B68584A43F4DB
:101FCC00E06353607B681B6803F00803002B05D0AB
:101FDC00534B5B68524A43F460535360504B5B68FD
:101FEC0023F0F0027B689B684D4913434B607B6880
:101FFC001B6803F00103002B40D07B685B68012B4E
:10200C0007D1474B1B6803F40033002B15D1012378
:10201C007FE07B685B68022B07D1414B1B6803F0A8
:10202C000073002B09D1012373E03D4B1B6803F0B7
:10203C000203002B01D101236BE0394B5B6823F0C9
:10204C0003027B685B68364913434B60FEF7F6FB73
:10205C00F8600AE0FEF7F2FB0246FB68D31A41F285
:10206C008832934201D9032353E02D4B5B6803F074
:10207C000C027B685B689B009A42EBD1274B1B6878
:10208C0003F007033A689A4210D2244B1B6823F0E2
:10209C00070222493B6813430B60204B1B6803F07B
:1020AC0007033A689A4201D0012332E07B681B682F
:1020BC0003F00403002B08D0194B5B6823F4E06297
:1020CC007B68DB68164913434B607B681B6803F025
:1020DC000803002B09D0124B5B6823F460527B6819
:1020EC001B69DB000E4913434B6000F021F80246DC
:1020FC000B4B5B681B0903F00F030A49CB5C22FAFC
:10210C0003F3094A1360094B1B681846FEF754FB8E
:10211C00002318461037BD4680BD00BF002002408A
:10212C0000100240942A000804000020080000203F
:10213C0080B487B000AF0023FB600023BB6000239A
:10214C007B6100237B6000233B611E4B5B68FB6063
:10215C00FB6803F00C03042B02D0082B03D027E000
:10216C00194B3B6127E0FB689B0C03F00F03174AEC
:10217C00D35C7B60FB6803F48033002B10D0114BD5
:10218C005B685B0C03F00103114AD35CBB607B689A
:10219C000D4A03FB02F2BB68B2FBF3F37B6104E074
:1021AC007B680C4A02FB03F37B617B693B6102E0B9
:1021BC00054B3B6100BF3B6918461C37BD4680BCD4
:1021CC00704700BF0010024000127A00A42A0008D9
:1021DC00B42A000800093D0080B485B000AF7860D7
:1021EC000A4B1B680A4AA2FB03235B0A7A6802FBB0
:1021FC0003F3FB6000BFFB685A1EFA60002BF9D199
:10220C0000BF00BF1437BD4680BC704704000020DF
:10221C00D34D621080B582B000AF78607B68002B24
:10222C0001D1012341E07B6893F83D30DBB2002BF8
:10223C0006D17B68002283F83C207868FEF75CFAB4
:10224C007B68022283F83D207B681A687B68043324
:10225C001946104600F074FA7B68012283F8462078
:10226C007B68012283F83E207B68012283F83F20A3
:10227C007B68012283F840207B68012283F841208F
:10228C007B68012283F842207B68012283F843207B
:10229C007B68012283F844207B68012283F8452067
:1022AC007B68012283F83D20002318460837BD4681
:1022BC0080BD000080B485B000AF78607B6893F877
:1022CC003D30DBB2012B01D001233AE07B680222C6
:1022DC0083F83D207B681B68DA687B681B6842F0DA
:1022EC000102DA607B681B68184A93420ED07B6847
:1022FC001B68B3F1804F09D07B681B68144A93426A
:10230C0004D07B681B68134A934211D17B681B680D
:10231C009B6803F00703FB60FB68062B10D07B68FF
:10232C001B681A687B681B6842F001021A6007E0A0
:10233C007B681B681A687B681B6842F001021A6094
:10234C00002318461437BD4680BC7047002C014052
:10235C00000400400008004080B582B000AF7860F7
:10236C007B681B681B6903F00203022B22D17B687C
:10237C001B68DB6803F00203022B1BD17B681B6814
:10238C006FF002021A617B6801221A777B681B6866
:10239C009B6903F00303002B03D0786800F0B4F9B9
:1023AC0005E0786800F0A7F9786800F0B6F97B686A
:1023BC0000221A777B681B681B6903F00403042B4B
:1023CC0022D17B681B68DB6803F00403042B1BD150
:1023DC007B681B686FF004021A617B6802221A7713
:1023EC007B681B689B6903F44073002B03D07868EF
:1023FC0000F08AF905E0786800F07DF9786800F063
:10240C008CF97B6800221A777B681B681B6903F0C8
:10241C000803082B22D17B681B68DB6803F00803D8
:10242C00082B1BD17B681B686FF008021A617B6854
:10243C0004221A777B681B68DB6903F00303002B0B
:10244C0003D0786800F060F905E0786800F053F983
:10245C00786800F062F97B6800221A777B681B6849
:10246C001B6903F01003102B22D17B681B68DB68FF
:10247C0003F01003102B1BD17B681B686FF010024C
:10248C001A617B6808221A777B681B68DB6903F486
:10249C004073002B03D0786800F036F905E07868BB
:1024AC0000F029F9786800F038F97B6800221A7777
:1024BC007B681B681B6903F00103012B0ED17B6841
:1024CC001B68DB6803F00103012B07D17B681B68D9
:1024DC006FF001021A617868FEF73EF87B681B68A2
:1024EC001B6903F08003802B0ED17B681B68DB68B3
:1024FC0003F08003802B07D17B681B686FF0800290
:10250C001A61786800F07BFA7B681B681B6903F022
:10251C004003402B0ED17B681B68DB6803F0400343
:10252C00402B07D17B681B686FF040021A617868FA
:10253C0000F0FCF87B681B681B6903F02003202B60
:10254C000ED17B681B68DB6803F02003202B07D1BE
:10255C007B681B686FF020021A61786800F046FAFD
:10256C0000BF0837BD4680BD80B584B000AF786031
:10257C0039600023FB737B6893F83C30012B01D14D
:10258C000223B4E07B68012283F83C207B680222A2
:10259C0083F83D207B681B689B68BB60BB6823F09D
:1025AC007703BB60BB6823F47F43BB607B681B680D
:1025BC00BA689A603B681B68B3F5005F3ED0B3F510
:1025CC00005F00F28780B3F5805F00F08680B3F582
:1025DC00805F7FD8702B1AD0702B7BD8602B50D09B
:1025EC00602B77D8502B3CD0502B73D8402B58D025
:1025FC00402B6FD8302B64D0302B6BD8202B60D075
:10260C00202B67D8002B5CD0102B5AD062E07B6853
:10261C0018683B6899683B685A683B68DB6800F04F
:10262C0068F97B681B689B68BB60BB6843F07703E9
:10263C00BB607B681B68BA689A604FE07B6818685F
:10264C003B6899683B685A683B68DB6800F051F955
:10265C007B681B689A687B681B6842F480429A60AE
:10266C003CE07B6818683B6859683B68DB681A4635
:10267C0000F0C8F87B681B685021184600F01FF961
:10268C002CE07B6818683B6859683B68DB681A4625
:10269C0000F0E6F87B681B686021184600F00FF923
:1026AC001CE07B6818683B6859683B68DB681A4615
:1026BC0000F0A8F87B681B684021184600F0FFF872
:1026CC000CE07B681A683B681B681946104600F0E2
:1026DC00F6F803E00123FB7300E000BF7B680122E6
:1026EC0083F83D207B68002283F83C20FB7B184656
:1026FC001037BD4680BD80B483B000AF786000BF9A
:10270C000C37BD4680BC704780B483B000AF786096
:10271C0000BF0C37BD4680BC704780B483B000AF9F
:10272C00786000BF0C37BD4680BC704780B483B066
:10273C0000AF786000BF0C37BD4680BC704700000E
:10274C0080B485B000AF786039607B681B68FB6033
:10275C007B68294A93420BD07B68B3F1804F07D03A
:10276C007B68264A934203D07B68254A934208D162
:10277C00FB6823F07003FB603B685B68FA681343EB
:10278C00FB607B681C4A93420BD07B68B3F1804F93
:10279C0007D07B68194A934203D07B68184A93424E
:1027AC0008D1FB6823F44073FB603B68DB68FA6874
:1027BC001343FB60FB6823F080023B685B691343A7
:1027CC00FB607B68FA681A603B689A687B68DA621F
:1027DC003B681A687B689A627B68074A934203D10C
:1027EC003B681A697B681A637B6801225A6100BFD7
:1027FC001437BD4680BC7047002C014000040040DB
:10280C000008004080B487B000AFF860B9607A600F
:10281C00FB681B6A7B61FB681B6A23F00102FB6887
:10282C001A62FB689B693B613B6923F0F0033B61D7
:10283C007B681B013A6913433B617B6923F00A03F4
:10284C007B617A69BB6813437B61FB683A699A6167
:10285C00FB687A691A6200BF1C37BD4680BC7047A2
:10286C0080B487B000AFF860B9607A60FB681B6A0F
:10287C007B61FB681B6A23F01002FB681A62FB6821
:10288C009B693B613B6923F470433B617B681B0391
:10289C003A6913433B617B6923F0A0037B61BB68FE
:1028AC001B017A6913437B61FB683A699A61FB6887
:1028BC007A691A6200BF1C37BD4680BC704780B471
:1028CC0085B000AF786039607B689B68FB60FB6803
:1028DC0023F07003FB603A68FB68134343F0070373
:1028EC00FB607B68FA689A6000BF1437BD4680BCF9
:1028FC00704780B487B000AFF860B9607A603B6015
:10290C00FB689B687B617B6923F47F437B613B683D
:10291C001A027B681A43BB6813437A6913437B61C1
:10292C00FB687A699A6000BF1C37BD4680BC704753
:10293C0080B485B000AF786039607B6893F83C3028
:10294C00012B01D1022346E07B68012283F83C2055
:10295C007B68022283F83D207B681B685B68FB6008
:10296C007B681B689B68BB60FB6823F07003FB6093
:10297C003B681B68FA681343FB607B681B68FA684A
:10298C005A607B681B68164A93420ED07B681B68A2
:10299C00B3F1804F09D07B681B68124A934204D074
:1029AC007B681B68104A93420CD1BB6823F08003F0
:1029BC00BB603B685B68BA681343BB607B681B6891
:1029CC00BA689A607B68012283F83D207B680022FC
:1029DC0083F83C20002318461437BD4680BC704752
:1029EC00002C0140000400400008004080B483B07B
:1029FC0000AF786000BF0C37BD4680BC704780B418
:102A0C0083B000AF786000BF0C37BD4680BC704708
:102A1C0003460244934200D1704703F8011BF9E7C7
:102A2C0070B500260C4D0D4C641BA410A64209D1A8
:102A3C0000F01AF800260A4D0A4C641BA410A6429A
:102A4C0005D170BD55F8043B98470136EEE755F8B3
:102A5C00043B98470136F2E7B82A0008B82A000868
:102A6C00B82A0008BC2A0008F8B500BFF8BC08BC9E
:102A7C009E467047F8B500BFF8BC08BC9E46704730
:102A8C000248012C000000000000000000000000C3
:102A9C0001020304060708090203040506070809D6
:0C2AAC000A0B0C0D0E0F101001020000B0
:042AB80031010008E0
:042ABC000D01000800
:102AC000E80300000024F4001000000001000000F2
:040000050800074D9B
:00000001FF
